{
  "transactions": [
    {
      "hash": "0x5b9a37f51ca1bae72cbbf81f71bfbabbdd8fbc18e5af5ab401349a1ca7a6e0f4",
      "transactionType": "CALL",
      "contractName": null,
      "contractAddress": "0x66ea213ab1cf728dabdde0604ce6286f3a457efc",
      "function": null,
      "arguments": null,
      "transaction": {
        "from": "0x440cf543e261ab548048a81d91a0df78b6778db8",
        "to": "0x66ea213ab1cf728dabdde0604ce6286f3a457efc",
        "gas": "0x714d",
        "value": "0x8ac7230489e80000",
        "input": "0x",
        "nonce": "0x4c2",
        "chainId": "0x4cef52"
      },
      "additionalContracts": [],
      "isFixedGasLimit": false
    },
    {
      "hash": "0xc084a467f2a792c09e0ac289cb2894e5154c0f66617717c1a95bd815ab87a56e",
      "transactionType": "CALL",
      "contractName": null,
      "contractAddress": "0xb9de38d8d4e343330bbf99fe472fededd088222a",
      "function": null,
      "arguments": null,
      "transaction": {
        "from": "0x440cf543e261ab548048a81d91a0df78b6778db8",
        "to": "0xb9de38d8d4e343330bbf99fe472fededd088222a",
        "gas": "0x714d",
        "value": "0x1158e460913d00000",
        "input": "0x",
        "nonce": "0x4c3",
        "chainId": "0x4cef52"
      },
      "additionalContracts": [],
      "isFixedGasLimit": false
    },
    {
      "hash": "0xd1cd6d565c9408f83c664efcd673ad58efd1bb80b92d93263eec3b35a58a8bcc",
      "transactionType": "CALL",
      "contractName": null,
      "contractAddress": "0x67471b9cca5be9831c3d4b9d7f99b17dcea9852b",
      "function": "register(bool,bool,bytes32,bytes32)",
      "arguments": [
        "true",
        "false",
        "0x37ab20b0b9b7603d46ac9beda6418de3386ea0b9b7921a4a1b2cecd878035f08",
        "0x0000000000000000000000000000000000000000000000000000000000000000"
      ],
      "transaction": {
        "from": "0x66ea213ab1cf728dabdde0604ce6286f3a457efc",
        "to": "0x67471b9cca5be9831c3d4b9d7f99b17dcea9852b",
        "gas": "0x110a2",
        "value": "0x8ac7230489e80000",
        "input": "0x5b7fe8830000000000000000000000000000000000000000000000000000000000000001000000000000000000000000000000000000000000000000000000000000000037ab20b0b9b7603d46ac9beda6418de3386ea0b9b7921a4a1b2cecd878035f080000000000000000000000000000000000000000000000000000000000000000",
        "nonce": "0x3",
        "chainId": "0x4cef52"
      },
      "additionalContracts": [],
      "isFixedGasLimit": false
    },
    {
      "hash": "0xeea66431f55375660f628e55f4650fdc8821138dfdcc4e0082cb7190804c778b",
      "transactionType": "CALL",
      "contractName": null,
      "contractAddress": "0x67471b9cca5be9831c3d4b9d7f99b17dcea9852b",
      "function": "register(bool,bool,bytes32,bytes32)",
      "arguments": [
        "false",
        "true",
        "0xd8d69c1da829f8277e4e80945a974b3ca009835eb268c14bf9321952f1cf169e",
        "0x0000000000000000000000000000000000000000000000000000000000000000"
      ],
      "transaction": {
        "from": "0xb9de38d8d4e343330bbf99fe472fededd088222a",
        "to": "0x67471b9cca5be9831c3d4b9d7f99b17dcea9852b",
        "gas": "0x10193",
        "value": "0x1158e460913d00000",
        "input": "0x5b7fe88300000000000000000000000000000000000000000000000000000000000000000000000000000000000000000000000000000000000000000000000000000001d8d69c1da829f8277e4e80945a974b3ca009835eb268c14bf9321952f1cf169e0000000000000000000000000000000000000000000000000000000000000000",
        "nonce": "0x2",
        "chainId": "0x4cef52"
      },
      "additionalContracts": [],
      "isFixedGasLimit": false
    },
    {
      "hash": "0xb5df5c6792687179357c026a162011750f943f4b132aa7eb1c2573275324f6e5",
      "transactionType": "CALL",
      "contractName": null,
      "contractAddress": "0x9331b923f0b986ee5d173c06606188f3b7169159",
      "function": "createTask(address,uint64,bytes32,address[],uint8)",
      "arguments": [
        "0x66eA213ab1cf728DAbDDE0604Ce6286F3A457EFc",
        "1771433325",
        "0x24c43b0c66feb087dfb5fb8d731db16cd620f76475ed68b81c1aba9de302a646",
        "[0xb9DE38d8d4E343330BbF99FE472FedeDd088222A]",
        "1"
      ],
      "transaction": {
        "from": "0x440cf543e261ab548048a81d91a0df78b6778db8",
        "to": "0x9331b923f0b986ee5d173c06606188f3b7169159",
        "gas": "0x4f375",
        "value": "0x4563918244f40000",
        "input": "0xb99c90a300000000000000000000000066ea213ab1cf728dabdde0604ce6286f3a457efc000000000000000000000000000000000000000000000000000000006995ed6d24c43b0c66feb087dfb5fb8d731db16cd620f76475ed68b81c1aba9de302a64600000000000000000000000000000000000000000000000000000000000000a000000000000000000000000000000000000000000000000000000000000000010000000000000000000000000000000000000000000000000000000000000001000000000000000000000000b9de38d8d4e343330bbf99fe472fededd088222a",
        "nonce": "0x4c4",
        "chainId": "0x4cef52"
      },
      "additionalContracts": [],
      "isFixedGasLimit": false
    },
    {
      "hash": "0x7db501a462c37ad686f407f747442ed13fb43afd559a3cf3503498a519da2177",
      "transactionType": "CALL",
      "contractName": null,
      "contractAddress": "0x9331b923f0b986ee5d173c06606188f3b7169159",
      "function": "acceptTask(uint256)",
      "arguments": [
        "2"
      ],
      "transaction": {
        "from": "0x66ea213ab1cf728dabdde0604ce6286f3a457efc",
        "to": "0x9331b923f0b986ee5d173c06606188f3b7169159",
        "gas": "0x10dfb",
        "value": "0x0",
        "input": "0x1bf6912d0000000000000000000000000000000000000000000000000000000000000002",
        "nonce": "0x4",
        "chainId": "0x4cef52"
      },
      "additionalContracts": [],
      "isFixedGasLimit": false
    },
    {
      "hash": "0x33674b858b2a6cb524eff5cbd16e2e6caaf2e4cea41d23fcb68c455298db3b6d",
      "transactionType": "CALL",
      "contractName": null,
      "contractAddress": "0x9331b923f0b986ee5d173c06606188f3b7169159",
      "function": "submitResult(uint256,bytes32,string)",
      "arguments": [
        "2",
        "0x06b0a4f426f6713234b2d4b2468640bc4e0bb72657a920ad24c5087153c593c8",
        "ipfs://example"
      ],
      "transaction": {
        "from": "0x66ea213ab1cf728dabdde0604ce6286f3a457efc",
        "to": "0x9331b923f0b986ee5d173c06606188f3b7169159",
        "gas": "0x1a23e",
        "value": "0x0",
        "input": "0xf3c0e479000000000000000000000000000000000000000000000000000000000000000206b0a4f426f6713234b2d4b2468640bc4e0bb72657a920ad24c5087153c593c80000000000000000000000000000000000000000000000000000000000000060000000000000000000000000000000000000000000000000000000000000000e697066733a2f2f6578616d706c65000000000000000000000000000000000000",
        "nonce": "0x5",
        "chainId": "0x4cef52"
      },
      "additionalContracts": [],
      "isFixedGasLimit": false
    },
    {
      "hash": "0xfb1d1a90272483a5303a6d2c2a471e1aec10858d95ea170933fcb6943d22ef46",
      "transactionType": "CALL",
      "contractName": null,
      "contractAddress": "0x9331b923f0b986ee5d173c06606188f3b7169159",
      "function": "approve(uint256)",
      "arguments": [
        "2"
      ],
      "transaction": {
        "from": "0xb9de38d8d4e343330bbf99fe472fededd088222a",
        "to": "0x9331b923f0b986ee5d173c06606188f3b7169159",
        "gas": "0x2169a",
        "value": "0x0",
        "input": "0xb759f9540000000000000000000000000000000000000000000000000000000000000002",
        "nonce": "0x3",
        "chainId": "0x4cef52"
      },
      "additionalContracts": [],
      "isFixedGasLimit": false
    }
  ],
  "receipts": [
    {
      "status": "0x1",
      "cumulativeGasUsed": "0xf4301",
      "logs": [
        {
          "address": "0x1800000000000000000000000000000000000000",
          "topics": [
            "0x62f084c00a442dcf51cdbb51beed2839bf42a268da8474b0e98f38edb7db5a22",
            "0x000000000000000000000000440cf543e261ab548048a81d91a0df78b6778db8",
            "0x00000000000000000000000066ea213ab1cf728dabdde0604ce6286f3a457efc"
          ],
          "data": "0x0000000000000000000000000000000000000000000000008ac7230489e80000",
          "blockHash": "0x07ce1a927d768c2382fd12bbb83298ffe3e99256fd9d3feacb7ba75390c941d0",
          "blockNumber": "0x1a6b190",
          "blockTimestamp": "0x6995df61",
          "transactionHash": "0x5b9a37f51ca1bae72cbbf81f71bfbabbdd8fbc18e5af5ab401349a1ca7a6e0f4",
          "transactionIndex": "0x9",
          "logIndex": "0x23",
          "removed": false
        }
      ],
      "logsBloom": "0x00000000000000000000000000000000000000000000000000000000000000000000000001000000000000000000000000000000000000000000000000020000000000000000000000000000000000000000020001000000000000000000000000000000000000000000000000000000000002000000000000000000000000000040000008000000000000000000000000000000040000000000000000000000000000000000000000000000000002000000002000000000000000000000000000000000000000004000000000000000000000000000000000000000000000008000000000000000000000000000000000000000000000000000000000000000",
      "type": "0x2",
      "transactionHash": "0x5b9a37f51ca1bae72cbbf81f71bfbabbdd8fbc18e5af5ab401349a1ca7a6e0f4",
      "transactionIndex": "0x9",
      "blockHash": "0x07ce1a927d768c2382fd12bbb83298ffe3e99256fd9d3feacb7ba75390c941d0",
      "blockNumber": "0x1a6b190",
      "gasUsed": "0x5208",
      "effectiveGasPrice": "0x4a82cecb2",
      "from": "0x440cf543e261ab548048a81d91a0df78b6778db8",
      "to": "0x66ea213ab1cf728dabdde0604ce6286f3a457efc",
      "contractAddress": null
    },
    {
      "status": "0x1",
      "cumulativeGasUsed": "0x1dca75",
      "logs": [
        {
          "address": "0x1800000000000000000000000000000000000000",
          "topics": [
            "0x62f084c00a442dcf51cdbb51beed2839bf42a268da8474b0e98f38edb7db5a22",
            "0x000000000000000000000000440cf543e261ab548048a81d91a0df78b6778db8",
            "0x000000000000000000000000b9de38d8d4e343330bbf99fe472fededd088222a"
          ],
          "data": "0x000000000000000000000000000000000000000000000001158e460913d00000",
          "blockHash": "0xab7c4091dd3707d1df2e0f6ca3268da669d62b221ac7ab53bcdca855bc138978",
          "blockNumber": "0x1a6b193",
          "blockTimestamp": "0x6995df62",
          "transactionHash": "0xc084a467f2a792c09e0ac289cb2894e5154c0f66617717c1a95bd815ab87a56e",
          "transactionIndex": "0xc",
          "logIndex": "0x42",
          "removed": false
        }
      ],
      "logsBloom": "0x00000000000020000000000000000000000000000000000000000000000000000000000001000000000000000000000000000000000000000000000000020000000000800000000000000000000000000000000001000000000000000000000000000000000000000000000000000000000002000000000000000000000000000040000000000000000000000000000000000000040000000000000000000000000000000000000000000000000002000000002000000000000000000000000000000000000000004000000000000000000000000000000000000000000000000000000000000000000000000000000000000000000800000000000000000000",
      "type": "0x2",
      "transactionHash": "0xc084a467f2a792c09e0ac289cb2894e5154c0f66617717c1a95bd815ab87a56e",
      "transactionIndex": "0xc",
      "blockHash": "0xab7c4091dd3707d1df2e0f6ca3268da669d62b221ac7ab53bcdca855bc138978",
      "blockNumber": "0x1a6b193",
      "gasUsed": "0x5208",
      "effectiveGasPrice": "0x4a82cecb2",
      "from": "0x440cf543e261ab548048a81d91a0df78b6778db8",
      "to": "0xb9de38d8d4e343330bbf99fe472fededd088222a",
      "contractAddress": null
    },
    {
      "status": "0x1",
      "cumulativeGasUsed": "0x158653",
      "logs": [
        {
          "address": "0x1800000000000000000000000000000000000000",
          "topics": [
            "0x62f084c00a442dcf51cdbb51beed2839bf42a268da8474b0e98f38edb7db5a22",
            "0x00000000000000000000000066ea213ab1cf728dabdde0604ce6286f3a457efc",
            "0x00000000000000000000000067471b9cca5be9831c3d4b9d7f99b17dcea9852b"
          ],
          "data": "0x0000000000000000000000000000000000000000000000008ac7230489e80000",
          "blockHash": "0x6b8ecce6a9daed0a4cce36d001ea9cd332034f01dcb2c33d5fad2fe56e6f4a6d",
          "blockNumber": "0x1a6b197",
          "blockTimestamp": "0x6995df64",
          "transactionHash": "0xd1cd6d565c9408f83c664efcd673ad58efd1bb80b92d93263eec3b35a58a8bcc",
          "transactionIndex": "0xa",
          "logIndex": "0x2b",
          "removed": false
        },
        {
          "address": "0x67471b9cca5be9831c3d4b9d7f99b17dcea9852b",
          "topics": [
            "0x4fedc3e6c116ab84f1fd1c936a810844ab9ff4be38b3d805cca0cfac9da579df",
            "0x00000000000000000000000066ea213ab1cf728dabdde0604ce6286f3a457efc"
          ],
          "data": "0x0000000000000000000000000000000000000000000000008ac7230489e80000000000000000000000000000000000000000000000000001158e460913d00000",
          "blockHash": "0x6b8ecce6a9daed0a4cce36d001ea9cd332034f01dcb2c33d5fad2fe56e6f4a6d",
          "blockNumber": "0x1a6b197",
          "blockTimestamp": "0x6995df64",
          "transactionHash": "0xd1cd6d565c9408f83c664efcd673ad58efd1bb80b92d93263eec3b35a58a8bcc",
          "transactionIndex": "0xa",
          "logIndex": "0x2c",
          "removed": false
        },
        {
          "address": "0x67471b9cca5be9831c3d4b9d7f99b17dcea9852b",
          "topics": [
            "0x3267e7587044a14cd9327c402ff9c44cee95382922f8fd6b171674753681c9a4",
            "0x00000000000000000000000066ea213ab1cf728dabdde0604ce6286f3a457efc"
          ],
          "data": "0x37ab20b0b9b7603d46ac9beda6418de3386ea0b9b7921a4a1b2cecd878035f0800000000000000000000000000000000000000000000000000000000000000000000000000000000000000000000000000000000000000000000000000000001",
          "blockHash": "0x6b8ecce6a9daed0a4cce36d001ea9cd332034f01dcb2c33d5fad2fe56e6f4a6d",
          "blockNumber": "0x1a6b197",
          "blockTimestamp": "0x6995df64",
          "transactionHash": "0xd1cd6d565c9408f83c664efcd673ad58efd1bb80b92d93263eec3b35a58a8bcc",
          "transactionIndex": "0xa",
          "logIndex": "0x2d",
          "removed": false
        }
      ],
      "logsBloom": "0x00000004000000000000000000000000000000000000000000000000000100000000200000000000000000000000000000000000000000000000000000020000000000000000000000000000000000000000020001000000000000000100000000000000000000000000000000000000000000000000000010000000000000000040000008000000000000000080020001000000040000000000000000000000000000000001000000000000000000000000002000000000000000000000000000000000000000004000000000000000020000000000000000000000800000008000000000000000000000000000000000000000000000000000000000000000",
      "type": "0x2",
      "transactionHash": "0xd1cd6d565c9408f83c664efcd673ad58efd1bb80b92d93263eec3b35a58a8bcc",
      "transactionIndex": "0xa",
      "blockHash": "0x6b8ecce6a9daed0a4cce36d001ea9cd332034f01dcb2c33d5fad2fe56e6f4a6d",
      "blockNumber": "0x1a6b197",
      "gasUsed": "0xba6b",
      "effectiveGasPrice": "0x4a82cecb2",
      "from": "0x66ea213ab1cf728dabdde0604ce6286f3a457efc",
      "to": "0x67471b9cca5be9831c3d4b9d7f99b17dcea9852b",
      "contractAddress": null
    },
    {
      "status": "0x1",
      "cumulativeGasUsed": "0xfae86",
      "logs": [
        {
          "address": "0x1800000000000000000000000000000000000000",
          "topics": [
            "0x62f084c00a442dcf51cdbb51beed2839bf42a268da8474b0e98f38edb7db5a22",
            "0x000000000000000000000000b9de38d8d4e343330bbf99fe472fededd088222a",
            "0x00000000000000000000000067471b9cca5be9831c3d4b9d7f99b17dcea9852b"
          ],
          "data": "0x000000000000000000000000000000000000000000000001158e460913d00000",
          "blockHash": "0xd1590ebc5135d68b064900254eaf65b474d7cd0b931c7811fed5f415bf1fe608",
          "blockNumber": "0x1a6b19b",
          "blockTimestamp": "0x6995df66",
          "transactionHash": "0xeea66431f55375660f628e55f4650fdc8821138dfdcc4e0082cb7190804c778b",
          "transactionIndex": "0x7",
          "logIndex": "0x2d",
          "removed": false
        },
        {
          "address": "0x67471b9cca5be9831c3d4b9d7f99b17dcea9852b",
          "topics": [
            "0x4fedc3e6c116ab84f1fd1c936a810844ab9ff4be38b3d805cca0cfac9da579df",
            "0x000000000000000000000000b9de38d8d4e343330bbf99fe472fededd088222a"
          ],
          "data": "0x000000000000000000000000000000000000000000000001158e460913d000000000000000000000000000000000000000000000000000022b1c8c1227a00000",
          "blockHash": "0xd1590ebc5135d68b064900254eaf65b474d7cd0b931c7811fed5f415bf1fe608",
          "blockNumber": "0x1a6b19b",
          "blockTimestamp": "0x6995df66",
          "transactionHash": "0xeea66431f55375660f628e55f4650fdc8821138dfdcc4e0082cb7190804c778b",
          "transactionIndex": "0x7",
          "logIndex": "0x2e",
          "removed": false
        },
        {
          "address": "0x67471b9cca5be9831c3d4b9d7f99b17dcea9852b",
          "topics": [
            "0x3267e7587044a14cd9327c402ff9c44cee95382922f8fd6b171674753681c9a4",
            "0x000000000000000000000000b9de38d8d4e343330bbf99fe472fededd088222a"
          ],
          "data": "0xd8d69c1da829f8277e4e80945a974b3ca009835eb268c14bf9321952f1cf169e00000000000000000000000000000000000000000000000000000000000000000000000000000000000000000000000000000000000000000000000000000001",
          "blockHash": "0xd1590ebc5135d68b064900254eaf65b474d7cd0b931c7811fed5f415bf1fe608",
          "blockNumber": "0x1a6b19b",
          "blockTimestamp": "0x6995df66",
          "transactionHash": "0xeea66431f55375660f628e55f4650fdc8821138dfdcc4e0082cb7190804c778b",
          "transactionIndex": "0x7",
          "logIndex": "0x2f",
          "removed": false
        }
      ],
      "logsBloom": "0x00000004000020000000000000000000000000000000000000000000000100000000200000000000000000000000000000000000000000000000000000020000000000800000000000000000000000000000000001000000000000000100000000000000000000000000000000000000000000000000000010000000000000000040000000000000000000000080020001000000040000000000000000000000000000000001000000000000000000000000002000000000000000000000000000000000000000004000000000000000020000000000000000000000800000000000000000000000000000000000000000000000000800000000000000000000",
      "type": "0x2",
      "transactionHash": "0xeea66431f55375660f628e55f4650fdc8821138dfdcc4e0082cb7190804c778b",
      "transactionIndex": "0x7",
      "blockHash": "0xd1590ebc5135d68b064900254eaf65b474d7cd0b931c7811fed5f415bf1fe608",
      "blockNumber": "0x1a6b19b",
      "gasUsed": "0xba7c",
      "effectiveGasPrice": "0x4a82cecb2",
      "from": "0xb9de38d8d4e343330bbf99fe472fededd088222a",
      "to": "0x67471b9cca5be9831c3d4b9d7f99b17dcea9852b",
      "contractAddress": null
    },
    {
      "status": "0x1",
      "cumulativeGasUsed": "0x17c627",
      "logs": [
        {
          "address": "0x1800000000000000000000000000000000000000",
          "topics": [
            "0x62f084c00a442dcf51cdbb51beed2839bf42a268da8474b0e98f38edb7db5a22",
            "0x000000000000000000000000440cf543e261ab548048a81d91a0df78b6778db8",
            "0x0000000000000000000000009331b923f0b986ee5d173c06606188f3b7169159"
          ],
          "data": "0x0000000000000000000000000000000000000000000000004563918244f40000",
          "blockHash": "0x5e64a26b105c0d8c54f49475f2365c724bb3fc4b3e720a7c4353cff7029aceb8",
          "blockNumber": "0x1a6b19e",
          "blockTimestamp": "0x6995df68",
          "transactionHash": "0xb5df5c6792687179357c026a162011750f943f4b132aa7eb1c2573275324f6e5",
          "transactionIndex": "0x9",
          "logIndex": "0x29",
          "removed": false
        },
        {
          "address": "0x9331b923f0b986ee5d173c06606188f3b7169159",
          "topics": [
            "0xaa26f183cb199079559ff86fb7bca411bbe282213ae72f58d0694215f0884599",
            "0x0000000000000000000000000000000000000000000000000000000000000002",
            "0x000000000000000000000000440cf543e261ab548048a81d91a0df78b6778db8",
            "0x00000000000000000000000066ea213ab1cf728dabdde0604ce6286f3a457efc"
          ],
          "data": "0x0000000000000000000000000000000000000000000000004563918244f40000000000000000000000000000000000000000000000000000000000006995ed6d24c43b0c66feb087dfb5fb8d731db16cd620f76475ed68b81c1aba9de302a64600000000000000000000000000000000000000000000000000000000000000010000000000000000000000000000000000000000000000000000000000000001",
          "blockHash": "0x5e64a26b105c0d8c54f49475f2365c724bb3fc4b3e720a7c4353cff7029aceb8",
          "blockNumber": "0x1a6b19e",
          "blockTimestamp": "0x6995df68",
          "transactionHash": "0xb5df5c6792687179357c026a162011750f943f4b132aa7eb1c2573275324f6e5",
          "transactionIndex": "0x9",
          "logIndex": "0x2a",
          "removed": false
        }
      ],
      "logsBloom": "0x04000000000000000000000000000000000000000000000000000000000000000002000001000000000000000080000000000000000000000000800000020000000000000000000000000000000000000000020001000000000002000000100000000000000000000000000000000000800002000000000000000000000000000040000008000000000000400000000000000000040000000000000000000000000000000000000000000100000002000000002000000000000000000000000000000000000000004000000000000000000000000000000000400000000000028000000000000000000000000000000000000000008000000000000000000000",
      "type": "0x2",
      "transactionHash": "0xb5df5c6792687179357c026a162011750f943f4b132aa7eb1c2573275324f6e5",
      "transactionIndex": "0x9",
      "blockHash": "0x5e64a26b105c0d8c54f49475f2365c724bb3fc4b3e720a7c4353cff7029aceb8",
      "blockNumber": "0x1a6b19e",
      "gasUsed": "0x3959f",
      "effectiveGasPrice": "0x4a82cecb2",
      "from": "0x440cf543e261ab548048a81d91a0df78b6778db8",
      "to": "0x9331b923f0b986ee5d173c06606188f3b7169159",
      "contractAddress": null
    },
    {
      "status": "0x1",
      "cumulativeGasUsed": "0x14f5ff",
      "logs": [
        {
          "address": "0x9331b923f0b986ee5d173c06606188f3b7169159",
          "topics": [
            "0xc8717b61398fb9d7cacf49fe1e296b2f10e9711226b532842b6ffd642cb6a2c6",
            "0x0000000000000000000000000000000000000000000000000000000000000002",
            "0x00000000000000000000000066ea213ab1cf728dabdde0604ce6286f3a457efc"
          ],
          "data": "0x",
          "blockHash": "0x36972c85cacbe0a0d4580dad67d2c5aecee6c923f17e544e4f4b457c8a4e08a5",
          "blockNumber": "0x1a6b1a2",
          "blockTimestamp": "0x6995df6a",
          "transactionHash": "0x7db501a462c37ad686f407f747442ed13fb43afd559a3cf3503498a519da2177",
          "transactionIndex": "0xd",
          "logIndex": "0x2d",
          "removed": false
        }
      ],
      "logsBloom": "0x04000000000000000000000000000000000000000000000000000000000000000002000000000000000000000000000000000000000000000000000000000000000000000000000000000000000000000000020000000000000000000000000000008000000000000000000000000000800000000000000000000000000000000000000008000000000000000000000000000000000000000000000000000000000000000000000000000100000000000000000000000000000000000000004000000000000000000000000000000000000000000000000000000000000000028000000000000000000020000000000000000000008000000000000000000000",
      "type": "0x2",
      "transactionHash": "0x7db501a462c37ad686f407f747442ed13fb43afd559a3cf3503498a519da2177",
      "transactionIndex": "0xd",
      "blockHash": "0x36972c85cacbe0a0d4580dad67d2c5aecee6c923f17e544e4f4b457c8a4e08a5",
      "blockNumber": "0x1a6b1a2",
      "gasUsed": "0xb89b",
      "effectiveGasPrice": "0x4a82cecb2",
      "from": "0x66ea213ab1cf728dabdde0604ce6286f3a457efc",
      "to": "0x9331b923f0b986ee5d173c06606188f3b7169159",
      "contractAddress": null
    },
    {
      "status": "0x1",
      "cumulativeGasUsed": "0x8d094",
      "logs": [
        {
          "address": "0x9331b923f0b986ee5d173c06606188f3b7169159",
          "topics": [
            "0x31bcdd90abd7345d8269ea50f9fc483f61e295e9db20488dfaeb9e0f2745c777",
            "0x0000000000000000000000000000000000000000000000000000000000000002"
          ],
          "data": "0x06b0a4f426f6713234b2d4b2468640bc4e0bb72657a920ad24c5087153c593c80000000000000000000000000000000000000000000000000000000000000040000000000000000000000000000000000000000000000000000000000000000e697066733a2f2f6578616d706c65000000000000000000000000000000000000",
          "blockHash": "0xaebbac35826e120270ec39c04eeb3860b2825504f283baa48aa29d2784689384",
          "blockNumber": "0x1a6b1a6",
          "blockTimestamp": "0x6995df6c",
          "transactionHash": "0x33674b858b2a6cb524eff5cbd16e2e6caaf2e4cea41d23fcb68c455298db3b6d",
          "transactionIndex": "0x4",
          "logIndex": "0x17",
          "removed": false
        }
      ],
      "logsBloom": "0x04000000000000000000000000000000000000000000000000000000000000000002000000000000000000000000000000000000000000000000000000000000000000000000000000000000000000000000000000000000000000000000000000000000000000000000000400000000800080000000000000000000000000000000000000000000000000000000000000000000000000000000000000000000000000000000080000000100000000000000000000000000000000000000000000000000000000000000000000000000000000000000000000000000000000020000000000000000000000000000000000000000008000000000000000000000",
      "type": "0x2",
      "transactionHash": "0x33674b858b2a6cb524eff5cbd16e2e6caaf2e4cea41d23fcb68c455298db3b6d",
      "transactionIndex": "0x4",
      "blockHash": "0xaebbac35826e120270ec39c04eeb3860b2825504f283baa48aa29d2784689384",
      "blockNumber": "0x1a6b1a6",
      "gasUsed": "0x12ece",
      "effectiveGasPrice": "0x4a82cecb2",
      "from": "0x66ea213ab1cf728dabdde0604ce6286f3a457efc",
      "to": "0x9331b923f0b986ee5d173c06606188f3b7169159",
      "contractAddress": null
    },
    {
      "status": "0x1",
      "cumulativeGasUsed": "0xe9b8a",
      "logs": [
        {
          "address": "0x9331b923f0b986ee5d173c06606188f3b7169159",
          "topics": [
            "0x6935e0f18dbfc87e6c52b8dd15ef30f9053fd73121f464a32653f6f682d19c9a",
            "0x0000000000000000000000000000000000000000000000000000000000000002",
            "0x000000000000000000000000b9de38d8d4e343330bbf99fe472fededd088222a"
          ],
          "data": "0x00000000000000000000000000000000000000000000000000000000000000010000000000000000000000000000000000000000000000000000000000000001",
          "blockHash": "0x7755ecb3a43ced254b1a70480e48bed81ff317b5e14b82e3ac0ab16b50501157",
          "blockNumber": "0x1a6b1a9",
          "blockTimestamp": "0x6995df6d",
          "transactionHash": "0xfb1d1a90272483a5303a6d2c2a471e1aec10858d95ea170933fcb6943d22ef46",
          "transactionIndex": "0x9",
          "logIndex": "0x1a",
          "removed": false
        },
        {
          "address": "0x9331b923f0b986ee5d173c06606188f3b7169159",
          "topics": [
            "0x878536ebf930768ad5274a079ba36028b128aeca4b9212fece414176c39e30f7",
            "0x0000000000000000000000000000000000000000000000000000000000000002"
          ],
          "data": "0x",
          "blockHash": "0x7755ecb3a43ced254b1a70480e48bed81ff317b5e14b82e3ac0ab16b50501157",
          "blockNumber": "0x1a6b1a9",
          "blockTimestamp": "0x6995df6d",
          "transactionHash": "0xfb1d1a90272483a5303a6d2c2a471e1aec10858d95ea170933fcb6943d22ef46",
          "transactionIndex": "0x9",
          "logIndex": "0x1b",
          "removed": false
        }
      ],
      "logsBloom": "0x04000000000020000000000000000000000000000000000000000000000000000002000000000000000000000000000800000000004000000000000000000000000000800010000000000000000000000000000000000000000000000000000000000000000000000000000000000000800000000000000000000000000000000000000000000020000000000000000000000000000000000000000000000000000000000000000000000100000000000000000000000000000000000000000000000000000000000080000000000000000000000000000000000000000000020000000000000000000000000000000000000000048800000000000000000000",
      "type": "0x2",
      "transactionHash": "0xfb1d1a90272483a5303a6d2c2a471e1aec10858d95ea170933fcb6943d22ef46",
      "transactionIndex": "0x9",
      "blockHash": "0x7755ecb3a43ced254b1a70480e48bed81ff317b5e14b82e3ac0ab16b50501157",
      "blockNumber": "0x1a6b1a9",
      "gasUsed": "0x16d8b",
      "effectiveGasPrice": "0x4a82cecb2",
      "from": "0xb9de38d8d4e343330bbf99fe472fededd088222a",
      "to": "0x9331b923f0b986ee5d173c06606188f3b7169159",
      "contractAddress": null
    }
  ],
  "libraries": [],
  "pending": [],
  "returns": {},
  "timestamp": 1771429743260,
  "chain": 5042002,
  "commit": null
}