{
  "transactions": [
    {
      "hash": "0x4afac87596cdb9eaed4aa15a68135dba820b02c4106020665babc425a779539e",
      "transactionType": "CALL",
      "contractName": null,
      "contractAddress": "0x66ea213ab1cf728dabdde0604ce6286f3a457efc",
      "function": null,
      "arguments": null,
      "transaction": {
        "from": "0x440cf543e261ab548048a81d91a0df78b6778db8",
        "to": "0x66ea213ab1cf728dabdde0604ce6286f3a457efc",
        "gas": "0x714d",
        "value": "0x8ac7230489e80000",
        "input": "0x",
        "nonce": "0x4be",
        "chainId": "0x4cef52"
      },
      "additionalContracts": [],
      "isFixedGasLimit": false
    },
    {
      "hash": "0x547c414c91b31b17f53f8bf21a40ed770e4a13eed50280c336dc1bebb7e0045c",
      "transactionType": "CALL",
      "contractName": null,
      "contractAddress": "0xb9de38d8d4e343330bbf99fe472fededd088222a",
      "function": null,
      "arguments": null,
      "transaction": {
        "from": "0x440cf543e261ab548048a81d91a0df78b6778db8",
        "to": "0xb9de38d8d4e343330bbf99fe472fededd088222a",
        "gas": "0x714d",
        "value": "0x1158e460913d00000",
        "input": "0x",
        "nonce": "0x4bf",
        "chainId": "0x4cef52"
      },
      "additionalContracts": [],
      "isFixedGasLimit": false
    },
    {
      "hash": "0xf8a90f7171daf5f0eeb45dfdd56b12bb01fe6de50026aebed15ae3d4aa6a6425",
      "transactionType": "CALL",
      "contractName": null,
      "contractAddress": "0x67471b9cca5be9831c3d4b9d7f99b17dcea9852b",
      "function": "register(bool,bool,bytes32,bytes32)",
      "arguments": [
        "true",
        "false",
        "0x37ab20b0b9b7603d46ac9beda6418de3386ea0b9b7921a4a1b2cecd878035f08",
        "0x0000000000000000000000000000000000000000000000000000000000000000"
      ],
      "transaction": {
        "from": "0x66ea213ab1cf728dabdde0604ce6286f3a457efc",
        "to": "0x67471b9cca5be9831c3d4b9d7f99b17dcea9852b",
        "gas": "0x2abd5",
        "value": "0x8ac7230489e80000",
        "input": "0x5b7fe8830000000000000000000000000000000000000000000000000000000000000001000000000000000000000000000000000000000000000000000000000000000037ab20b0b9b7603d46ac9beda6418de3386ea0b9b7921a4a1b2cecd878035f080000000000000000000000000000000000000000000000000000000000000000",
        "nonce": "0x0",
        "chainId": "0x4cef52"
      },
      "additionalContracts": [],
      "isFixedGasLimit": false
    },
    {
      "hash": "0x28fc05515709332b00f76509c8d12a681d8bf88582e9c4b2e932338d5519165e",
      "transactionType": "CALL",
      "contractName": null,
      "contractAddress": "0x67471b9cca5be9831c3d4b9d7f99b17dcea9852b",
      "function": "register(bool,bool,bytes32,bytes32)",
      "arguments": [
        "false",
        "true",
        "0xd8d69c1da829f8277e4e80945a974b3ca009835eb268c14bf9321952f1cf169e",
        "0x0000000000000000000000000000000000000000000000000000000000000000"
      ],
      "transaction": {
        "from": "0xb9de38d8d4e343330bbf99fe472fededd088222a",
        "to": "0x67471b9cca5be9831c3d4b9d7f99b17dcea9852b",
        "gas": "0x2abed",
        "value": "0x1158e460913d00000",
        "input": "0x5b7fe88300000000000000000000000000000000000000000000000000000000000000000000000000000000000000000000000000000000000000000000000000000001d8d69c1da829f8277e4e80945a974b3ca009835eb268c14bf9321952f1cf169e0000000000000000000000000000000000000000000000000000000000000000",
        "nonce": "0x0",
        "chainId": "0x4cef52"
      },
      "additionalContracts": [],
      "isFixedGasLimit": false
    },
    {
      "hash": "0x5c096e798090c7f90d92934d07be7a8246ee4b14a2b3372821d11830c36a3021",
      "transactionType": "CALL",
      "contractName": null,
      "contractAddress": "0x9331b923f0b986ee5d173c06606188f3b7169159",
      "function": "createTask(address,uint64,bytes32,address[],uint8)",
      "arguments": [
        "0x66eA213ab1cf728DAbDDE0604Ce6286F3A457EFc",
        "1771432602",
        "0x24c43b0c66feb087dfb5fb8d731db16cd620f76475ed68b81c1aba9de302a646",
        "[0xb9DE38d8d4E343330BbF99FE472FedeDd088222A]",
        "1"
      ],
      "transaction": {
        "from": "0x440cf543e261ab548048a81d91a0df78b6778db8",
        "to": "0x9331b923f0b986ee5d173c06606188f3b7169159",
        "gas": "0x59fb5",
        "value": "0x4563918244f40000",
        "input": "0xb99c90a300000000000000000000000066ea213ab1cf728dabdde0604ce6286f3a457efc000000000000000000000000000000000000000000000000000000006995ea9a24c43b0c66feb087dfb5fb8d731db16cd620f76475ed68b81c1aba9de302a64600000000000000000000000000000000000000000000000000000000000000a000000000000000000000000000000000000000000000000000000000000000010000000000000000000000000000000000000000000000000000000000000001000000000000000000000000b9de38d8d4e343330bbf99fe472fededd088222a",
        "nonce": "0x4c0",
        "chainId": "0x4cef52"
      },
      "additionalContracts": [],
      "isFixedGasLimit": false
    },
    {
      "hash": "0xd4bdc1e3c0db7940605468e9d99882bdd4bc821d350cb2e34bfc9b615cba8144",
      "transactionType": "CALL",
      "contractName": null,
      "contractAddress": "0x9331b923f0b986ee5d173c06606188f3b7169159",
      "function": "acceptTask(uint256)",
      "arguments": [
        "1"
      ],
      "transaction": {
        "from": "0x66ea213ab1cf728dabdde0604ce6286f3a457efc",
        "to": "0x9331b923f0b986ee5d173c06606188f3b7169159",
        "gas": "0x10dfb",
        "value": "0x0",
        "input": "0x1bf6912d0000000000000000000000000000000000000000000000000000000000000001",
        "nonce": "0x1",
        "chainId": "0x4cef52"
      },
      "additionalContracts": [],
      "isFixedGasLimit": false
    },
    {
      "hash": "0x7def21d47d35edeb6fbcb7b4fe8795ec119e7e9facd9cf730ea8bb6788a5e049",
      "transactionType": "CALL",
      "contractName": null,
      "contractAddress": "0x9331b923f0b986ee5d173c06606188f3b7169159",
      "function": "submitResult(uint256,bytes32,string)",
      "arguments": [
        "1",
        "0x06b0a4f426f6713234b2d4b2468640bc4e0bb72657a920ad24c5087153c593c8",
        "ipfs://example"
      ],
      "transaction": {
        "from": "0x66ea213ab1cf728dabdde0604ce6286f3a457efc",
        "to": "0x9331b923f0b986ee5d173c06606188f3b7169159",
        "gas": "0x1a23e",
        "value": "0x0",
        "input": "0xf3c0e479000000000000000000000000000000000000000000000000000000000000000106b0a4f426f6713234b2d4b2468640bc4e0bb72657a920ad24c5087153c593c80000000000000000000000000000000000000000000000000000000000000060000000000000000000000000000000000000000000000000000000000000000e697066733a2f2f6578616d706c65000000000000000000000000000000000000",
        "nonce": "0x2",
        "chainId": "0x4cef52"
      },
      "additionalContracts": [],
      "isFixedGasLimit": false
    },
    {
      "hash": "0x06859441a540aa7333179559e3d3d91ff1669d60b44acf1c313ed51955f2df47",
      "transactionType": "CALL",
      "contractName": null,
      "contractAddress": "0x9331b923f0b986ee5d173c06606188f3b7169159",
      "function": "approve(uint256)",
      "arguments": [
        "1"
      ],
      "transaction": {
        "from": "0xb9de38d8d4e343330bbf99fe472fededd088222a",
        "to": "0x9331b923f0b986ee5d173c06606188f3b7169159",
        "gas": "0x2169a",
        "value": "0x0",
        "input": "0xb759f9540000000000000000000000000000000000000000000000000000000000000001",
        "nonce": "0x1",
        "chainId": "0x4cef52"
      },
      "additionalContracts": [],
      "isFixedGasLimit": false
    },
    {
      "hash": "0x73667acb9b187b8b344858852ca0202f868de888a5824a472b2d0e633092b2b6",
      "transactionType": "CALL",
      "contractName": null,
      "contractAddress": "0x9331b923f0b986ee5d173c06606188f3b7169159",
      "function": "finalize(uint256)",
      "arguments": [
        "1"
      ],
      "transaction": {
        "from": "0x440cf543e261ab548048a81d91a0df78b6778db8",
        "to": "0x9331b923f0b986ee5d173c06606188f3b7169159",
        "gas": "0x14a4e",
        "value": "0x0",
        "input": "0x05261aea0000000000000000000000000000000000000000000000000000000000000001",
        "nonce": "0x4c1",
        "chainId": "0x4cef52"
      },
      "additionalContracts": [],
      "isFixedGasLimit": false
    }
  ],
  "receipts": [
    {
      "status": "0x1",
      "cumulativeGasUsed": "0x5fe01",
      "logs": [
        {
          "address": "0x1800000000000000000000000000000000000000",
          "topics": [
            "0x62f084c00a442dcf51cdbb51beed2839bf42a268da8474b0e98f38edb7db5a22",
            "0x000000000000000000000000440cf543e261ab548048a81d91a0df78b6778db8",
            "0x00000000000000000000000066ea213ab1cf728dabdde0604ce6286f3a457efc"
          ],
          "data": "0x0000000000000000000000000000000000000000000000008ac7230489e80000",
          "blockHash": "0x8dbab46201481fb7ff99fe8ad70f6ea2e60979087ae65dfcf981afa752c940ab",
          "blockNumber": "0x1a6abee",
          "blockTimestamp": "0x6995dc90",
          "transactionHash": "0x4afac87596cdb9eaed4aa15a68135dba820b02c4106020665babc425a779539e",
          "transactionIndex": "0x8",
          "logIndex": "0xd",
          "removed": false
        }
      ],
      "logsBloom": "0x00000000000000000000000000000000000000000000000000000000000000000000000001000000000000000000000000000000000000000000000000020000000000000000000000000000000000000000020001000000000000000000000000000000000000000000000000000000000002000000000000000000000000000040000008000000000000000000000000000000040000000000000000000000000000000000000000000000000002000000002000000000000000000000000000000000000000004000000000000000000000000000000000000000000000008000000000000000000000000000000000000000000000000000000000000000",
      "type": "0x2",
      "transactionHash": "0x4afac87596cdb9eaed4aa15a68135dba820b02c4106020665babc425a779539e",
      "transactionIndex": "0x8",
      "blockHash": "0x8dbab46201481fb7ff99fe8ad70f6ea2e60979087ae65dfcf981afa752c940ab",
      "blockNumber": "0x1a6abee",
      "gasUsed": "0x5208",
      "effectiveGasPrice": "0x4a82cecb2",
      "from": "0x440cf543e261ab548048a81d91a0df78b6778db8",
      "to": "0x66ea213ab1cf728dabdde0604ce6286f3a457efc",
      "contractAddress": null
    },
    {
      "status": "0x1",
      "cumulativeGasUsed": "0xbb1ea",
      "logs": [
        {
          "address": "0x1800000000000000000000000000000000000000",
          "topics": [
            "0x62f084c00a442dcf51cdbb51beed2839bf42a268da8474b0e98f38edb7db5a22",
            "0x000000000000000000000000440cf543e261ab548048a81d91a0df78b6778db8",
            "0x000000000000000000000000b9de38d8d4e343330bbf99fe472fededd088222a"
          ],
          "data": "0x000000000000000000000000000000000000000000000001158e460913d00000",
          "blockHash": "0x439ff4a151756db4553f002e93a5f1d7c96d871f78394875c9e2519714b0fed9",
          "blockNumber": "0x1a6abf1",
          "blockTimestamp": "0x6995dc91",
          "transactionHash": "0x547c414c91b31b17f53f8bf21a40ed770e4a13eed50280c336dc1bebb7e0045c",
          "transactionIndex": "0x5",
          "logIndex": "0x16",
          "removed": false
        }
      ],
      "logsBloom": "0x00000000000020000000000000000000000000000000000000000000000000000000000001000000000000000000000000000000000000000000000000020000000000800000000000000000000000000000000001000000000000000000000000000000000000000000000000000000000002000000000000000000000000000040000000000000000000000000000000000000040000000000000000000000000000000000000000000000000002000000002000000000000000000000000000000000000000004000000000000000000000000000000000000000000000000000000000000000000000000000000000000000000800000000000000000000",
      "type": "0x2",
      "transactionHash": "0x547c414c91b31b17f53f8bf21a40ed770e4a13eed50280c336dc1bebb7e0045c",
      "transactionIndex": "0x5",
      "blockHash": "0x439ff4a151756db4553f002e93a5f1d7c96d871f78394875c9e2519714b0fed9",
      "blockNumber": "0x1a6abf1",
      "gasUsed": "0x5208",
      "effectiveGasPrice": "0x4a82cecb2",
      "from": "0x440cf543e261ab548048a81d91a0df78b6778db8",
      "to": "0xb9de38d8d4e343330bbf99fe472fededd088222a",
      "contractAddress": null
    },
    {
      "status": "0x1",
      "cumulativeGasUsed": "0x6bd51",
      "logs": [
        {
          "address": "0x1800000000000000000000000000000000000000",
          "topics": [
            "0x62f084c00a442dcf51cdbb51beed2839bf42a268da8474b0e98f38edb7db5a22",
            "0x00000000000000000000000066ea213ab1cf728dabdde0604ce6286f3a457efc",
            "0x00000000000000000000000067471b9cca5be9831c3d4b9d7f99b17dcea9852b"
          ],
          "data": "0x0000000000000000000000000000000000000000000000008ac7230489e80000",
          "blockHash": "0x908dd46e88343344c4d46178695b5e9b8a442279edea1b7e4e0f6ca9a4cb838a",
          "blockNumber": "0x1a6abf5",
          "blockTimestamp": "0x6995dc93",
          "transactionHash": "0xf8a90f7171daf5f0eeb45dfdd56b12bb01fe6de50026aebed15ae3d4aa6a6425",
          "transactionIndex": "0x3",
          "logIndex": "0xa",
          "removed": false
        },
        {
          "address": "0x67471b9cca5be9831c3d4b9d7f99b17dcea9852b",
          "topics": [
            "0x4fedc3e6c116ab84f1fd1c936a810844ab9ff4be38b3d805cca0cfac9da579df",
            "0x00000000000000000000000066ea213ab1cf728dabdde0604ce6286f3a457efc"
          ],
          "data": "0x0000000000000000000000000000000000000000000000008ac7230489e800000000000000000000000000000000000000000000000000008ac7230489e80000",
          "blockHash": "0x908dd46e88343344c4d46178695b5e9b8a442279edea1b7e4e0f6ca9a4cb838a",
          "blockNumber": "0x1a6abf5",
          "blockTimestamp": "0x6995dc93",
          "transactionHash": "0xf8a90f7171daf5f0eeb45dfdd56b12bb01fe6de50026aebed15ae3d4aa6a6425",
          "transactionIndex": "0x3",
          "logIndex": "0xb",
          "removed": false
        },
        {
          "address": "0x67471b9cca5be9831c3d4b9d7f99b17dcea9852b",
          "topics": [
            "0xbd3280a973cd97db30064f3470b13fbb82ee66ce6d61386bbb43dd2765729ee6",
            "0x00000000000000000000000066ea213ab1cf728dabdde0604ce6286f3a457efc"
          ],
          "data": "0x37ab20b0b9b7603d46ac9beda6418de3386ea0b9b7921a4a1b2cecd878035f080000000000000000000000000000000000000000000000000000000000000000",
          "blockHash": "0x908dd46e88343344c4d46178695b5e9b8a442279edea1b7e4e0f6ca9a4cb838a",
          "blockNumber": "0x1a6abf5",
          "blockTimestamp": "0x6995dc93",
          "transactionHash": "0xf8a90f7171daf5f0eeb45dfdd56b12bb01fe6de50026aebed15ae3d4aa6a6425",
          "transactionIndex": "0x3",
          "logIndex": "0xc",
          "removed": false
        },
        {
          "address": "0x67471b9cca5be9831c3d4b9d7f99b17dcea9852b",
          "topics": [
            "0x2f8788117e7eff1d82e926ec794901d17c78024a50270940304540a733656f0d",
            "0x43f25613eb2f15fb17222a5d424ca2655743e71265d98e4b93c05e5fb589ecde",
            "0x00000000000000000000000066ea213ab1cf728dabdde0604ce6286f3a457efc",
            "0x00000000000000000000000066ea213ab1cf728dabdde0604ce6286f3a457efc"
          ],
          "data": "0x",
          "blockHash": "0x908dd46e88343344c4d46178695b5e9b8a442279edea1b7e4e0f6ca9a4cb838a",
          "blockNumber": "0x1a6abf5",
          "blockTimestamp": "0x6995dc93",
          "transactionHash": "0xf8a90f7171daf5f0eeb45dfdd56b12bb01fe6de50026aebed15ae3d4aa6a6425",
          "transactionIndex": "0x3",
          "logIndex": "0xd",
          "removed": false
        }
      ],
      "logsBloom": "0x00000004000000000000000000000000000000000000000000000000000100000000200000000000000000000000000000000000000000000000000000020000000000000000000000000000000000000000020801000080000000000100000008000000000000000000000000000000002000000000000000000000000000000040000008000000000000000088020001000000040000000000000000000000000000000001000000000000000000000000002000000000001000000000000000000000000000004000000000000000020000000000000100000000800000009000000000000000000000000000000000000000000000000000000000000000",
      "type": "0x2",
      "transactionHash": "0xf8a90f7171daf5f0eeb45dfdd56b12bb01fe6de50026aebed15ae3d4aa6a6425",
      "transactionIndex": "0x3",
      "blockHash": "0x908dd46e88343344c4d46178695b5e9b8a442279edea1b7e4e0f6ca9a4cb838a",
      "blockNumber": "0x1a6abf5",
      "gasUsed": "0x1ef16",
      "effectiveGasPrice": "0x4a82cecb2",
      "from": "0x66ea213ab1cf728dabdde0604ce6286f3a457efc",
      "to": "0x67471b9cca5be9831c3d4b9d7f99b17dcea9852b",
      "contractAddress": null
    },
    {
      "status": "0x1",
      "cumulativeGasUsed": "0x1589ed",
      "logs": [
        {
          "address": "0x1800000000000000000000000000000000000000",
          "topics": [
            "0x62f084c00a442dcf51cdbb51beed2839bf42a268da8474b0e98f38edb7db5a22",
            "0x000000000000000000000000b9de38d8d4e343330bbf99fe472fededd088222a",
            "0x00000000000000000000000067471b9cca5be9831c3d4b9d7f99b17dcea9852b"
          ],
          "data": "0x000000000000000000000000000000000000000000000001158e460913d00000",
          "blockHash": "0x5e3288cfaea7cbb5cddc3456c0126f26dd23c537c044fcacfbd9c973aa00af9e",
          "blockNumber": "0x1a6abf9",
          "blockTimestamp": "0x6995dc95",
          "transactionHash": "0x28fc05515709332b00f76509c8d12a681d8bf88582e9c4b2e932338d5519165e",
          "transactionIndex": "0x3",
          "logIndex": "0xf",
          "removed": false
        },
        {
          "address": "0x67471b9cca5be9831c3d4b9d7f99b17dcea9852b",
          "topics": [
            "0x4fedc3e6c116ab84f1fd1c936a810844ab9ff4be38b3d805cca0cfac9da579df",
            "0x000000000000000000000000b9de38d8d4e343330bbf99fe472fededd088222a"
          ],
          "data": "0x000000000000000000000000000000000000000000000001158e460913d00000000000000000000000000000000000000000000000000001158e460913d00000",
          "blockHash": "0x5e3288cfaea7cbb5cddc3456c0126f26dd23c537c044fcacfbd9c973aa00af9e",
          "blockNumber": "0x1a6abf9",
          "blockTimestamp": "0x6995dc95",
          "transactionHash": "0x28fc05515709332b00f76509c8d12a681d8bf88582e9c4b2e932338d5519165e",
          "transactionIndex": "0x3",
          "logIndex": "0x10",
          "removed": false
        },
        {
          "address": "0x67471b9cca5be9831c3d4b9d7f99b17dcea9852b",
          "topics": [
            "0xbd3280a973cd97db30064f3470b13fbb82ee66ce6d61386bbb43dd2765729ee6",
            "0x000000000000000000000000b9de38d8d4e343330bbf99fe472fededd088222a"
          ],
          "data": "0xd8d69c1da829f8277e4e80945a974b3ca009835eb268c14bf9321952f1cf169e0000000000000000000000000000000000000000000000000000000000000000",
          "blockHash": "0x5e3288cfaea7cbb5cddc3456c0126f26dd23c537c044fcacfbd9c973aa00af9e",
          "blockNumber": "0x1a6abf9",
          "blockTimestamp": "0x6995dc95",
          "transactionHash": "0x28fc05515709332b00f76509c8d12a681d8bf88582e9c4b2e932338d5519165e",
          "transactionIndex": "0x3",
          "logIndex": "0x11",
          "removed": false
        },
        {
          "address": "0x67471b9cca5be9831c3d4b9d7f99b17dcea9852b",
          "topics": [
            "0x2f8788117e7eff1d82e926ec794901d17c78024a50270940304540a733656f0d",
            "0x0ce23c3e399818cfee81a7ab0880f714e53d7672b08df0fa62f2843416e1ea09",
            "0x000000000000000000000000b9de38d8d4e343330bbf99fe472fededd088222a",
            "0x000000000000000000000000b9de38d8d4e343330bbf99fe472fededd088222a"
          ],
          "data": "0x",
          "blockHash": "0x5e3288cfaea7cbb5cddc3456c0126f26dd23c537c044fcacfbd9c973aa00af9e",
          "blockNumber": "0x1a6abf9",
          "blockTimestamp": "0x6995dc95",
          "transactionHash": "0x28fc05515709332b00f76509c8d12a681d8bf88582e9c4b2e932338d5519165e",
          "transactionIndex": "0x3",
          "logIndex": "0x12",
          "removed": false
        }
      ],
      "logsBloom": "0x00000004000020000000000000000000000000000000000000000000000100000000200000000000000000000000000000000000000000200000000000020000000000800000000000000000000000000000000801000080000000000100000000000000000000000000000000000000000000000000000000000000000000000040000000000000000000000088020001000000040000000000000000000000000010000001000000000000000000000000002000000000001000000000000000000000000000004000000000000000020000000000004100000000800000000000000000000000000000000000000000000000000800000000000000000000",
      "type": "0x2",
      "transactionHash": "0x28fc05515709332b00f76509c8d12a681d8bf88582e9c4b2e932338d5519165e",
      "transactionIndex": "0x3",
      "blockHash": "0x5e3288cfaea7cbb5cddc3456c0126f26dd23c537c044fcacfbd9c973aa00af9e",
      "blockNumber": "0x1a6abf9",
      "gasUsed": "0x1ef27",
      "effectiveGasPrice": "0x4a82cecb2",
      "from": "0xb9de38d8d4e343330bbf99fe472fededd088222a",
      "to": "0x67471b9cca5be9831c3d4b9d7f99b17dcea9852b",
      "contractAddress": null
    },
    {
      "status": "0x1",
      "cumulativeGasUsed": "0x11bb60",
      "logs": [
        {
          "address": "0x1800000000000000000000000000000000000000",
          "topics": [
            "0x62f084c00a442dcf51cdbb51beed2839bf42a268da8474b0e98f38edb7db5a22",
            "0x000000000000000000000000440cf543e261ab548048a81d91a0df78b6778db8",
            "0x0000000000000000000000009331b923f0b986ee5d173c06606188f3b7169159"
          ],
          "data": "0x0000000000000000000000000000000000000000000000004563918244f40000",
          "blockHash": "0x792f283a950941f137491e594b2f75cffd1365970f33d80f28ff847d0e1f6624",
          "blockNumber": "0x1a6abfc",
          "blockTimestamp": "0x6995dc97",
          "transactionHash": "0x5c096e798090c7f90d92934d07be7a8246ee4b14a2b3372821d11830c36a3021",
          "transactionIndex": "0x9",
          "logIndex": "0x1c",
          "removed": false
        },
        {
          "address": "0x9331b923f0b986ee5d173c06606188f3b7169159",
          "topics": [
            "0xaa26f183cb199079559ff86fb7bca411bbe282213ae72f58d0694215f0884599",
            "0x0000000000000000000000000000000000000000000000000000000000000001",
            "0x000000000000000000000000440cf543e261ab548048a81d91a0df78b6778db8",
            "0x00000000000000000000000066ea213ab1cf728dabdde0604ce6286f3a457efc"
          ],
          "data": "0x0000000000000000000000000000000000000000000000004563918244f40000000000000000000000000000000000000000000000000000000000006995ea9a24c43b0c66feb087dfb5fb8d731db16cd620f76475ed68b81c1aba9de302a64600000000000000000000000000000000000000000000000000000000000000010000000000000000000000000000000000000000000000000000000000000001",
          "blockHash": "0x792f283a950941f137491e594b2f75cffd1365970f33d80f28ff847d0e1f6624",
          "blockNumber": "0x1a6abfc",
          "blockTimestamp": "0x6995dc97",
          "transactionHash": "0x5c096e798090c7f90d92934d07be7a8246ee4b14a2b3372821d11830c36a3021",
          "transactionIndex": "0x9",
          "logIndex": "0x1d",
          "removed": false
        }
      ],
      "logsBloom": "0x00000000000000000000000000000000000000000000000000000000000000000002000001000000000000000080000000000000000000000000800000060000000000000000000000000000000000000000020001040000000002000000100000000000000000000000000000000000800002000000000000000000000000000040000008000000000000400000000000000000040000000000000000000000000000000000000000000000000002000000002000000000000000000000000000000000000000004000000000000000000000000000000000400000000040028000000000000000000000000000000000000000000000000000000000000000",
      "type": "0x2",
      "transactionHash": "0x5c096e798090c7f90d92934d07be7a8246ee4b14a2b3372821d11830c36a3021",
      "transactionIndex": "0x9",
      "blockHash": "0x792f283a950941f137491e594b2f75cffd1365970f33d80f28ff847d0e1f6624",
      "blockNumber": "0x1a6abfc",
      "gasUsed": "0x3d86b",
      "effectiveGasPrice": "0x4a82cecb2",
      "from": "0x440cf543e261ab548048a81d91a0df78b6778db8",
      "to": "0x9331b923f0b986ee5d173c06606188f3b7169159",
      "contractAddress": null
    },
    {
      "status": "0x1",
      "cumulativeGasUsed": "0xe870f",
      "logs": [
        {
          "address": "0x9331b923f0b986ee5d173c06606188f3b7169159",
          "topics": [
            "0xc8717b61398fb9d7cacf49fe1e296b2f10e9711226b532842b6ffd642cb6a2c6",
            "0x0000000000000000000000000000000000000000000000000000000000000001",
            "0x00000000000000000000000066ea213ab1cf728dabdde0604ce6286f3a457efc"
          ],
          "data": "0x",
          "blockHash": "0x8838dcfc4f3fe6f22956dd392e25edf36670a297418206777cfc20861f74bd13",
          "blockNumber": "0x1a6ac00",
          "blockTimestamp": "0x6995dc99",
          "transactionHash": "0xd4bdc1e3c0db7940605468e9d99882bdd4bc821d350cb2e34bfc9b615cba8144",
          "transactionIndex": "0x7",
          "logIndex": "0x1a",
          "removed": false
        }
      ],
      "logsBloom": "0x00000000000000000000000000000000000000000000000000000000000000000002000000000000000000000000000000000000000000000000000000040000000000000000000000000000000000000000020000040000000000000000000000008000000000000000000000000000800000000000000000000000000000000000000008000000000000000000000000000000000000000000000000000000000000000000000000000000000000000000000000000000000000000000004000000000000000000000000000000000000000000000000000000000000040028000000000000000000020000000000000000000000000000000000000000000",
      "type": "0x2",
      "transactionHash": "0xd4bdc1e3c0db7940605468e9d99882bdd4bc821d350cb2e34bfc9b615cba8144",
      "transactionIndex": "0x7",
      "blockHash": "0x8838dcfc4f3fe6f22956dd392e25edf36670a297418206777cfc20861f74bd13",
      "blockNumber": "0x1a6ac00",
      "gasUsed": "0xb89b",
      "effectiveGasPrice": "0x4a82cecb2",
      "from": "0x66ea213ab1cf728dabdde0604ce6286f3a457efc",
      "to": "0x9331b923f0b986ee5d173c06606188f3b7169159",
      "contractAddress": null
    },
    {
      "status": "0x1",
      "cumulativeGasUsed": "0x11f235",
      "logs": [
        {
          "address": "0x9331b923f0b986ee5d173c06606188f3b7169159",
          "topics": [
            "0x31bcdd90abd7345d8269ea50f9fc483f61e295e9db20488dfaeb9e0f2745c777",
            "0x0000000000000000000000000000000000000000000000000000000000000001"
          ],
          "data": "0x06b0a4f426f6713234b2d4b2468640bc4e0bb72657a920ad24c5087153c593c80000000000000000000000000000000000000000000000000000000000000040000000000000000000000000000000000000000000000000000000000000000e697066733a2f2f6578616d706c65000000000000000000000000000000000000",
          "blockHash": "0xbe6f2b1ba165dbe453f3f1ea31abb1ab2462ef752360ac27fda5513b367df592",
          "blockNumber": "0x1a6ac03",
          "blockTimestamp": "0x6995dc9a",
          "transactionHash": "0x7def21d47d35edeb6fbcb7b4fe8795ec119e7e9facd9cf730ea8bb6788a5e049",
          "transactionIndex": "0x9",
          "logIndex": "0x28",
          "removed": false
        }
      ],
      "logsBloom": "0x00000000000000000000000000000000000000000000000000000000000000000002000000000000000000000000000000000000000000000000000000040000000000000000000000000000000000000000000000040000000000000000000000000000000000000000000400000000800080000000000000000000000000000000000000000000000000000000000000000000000000000000000000000000000000000000080000000000000000000000000000000000000000000000000000000000000000000000000000000000000000000000000000000000000040020000000000000000000000000000000000000000000000000000000000000000",
      "type": "0x2",
      "transactionHash": "0x7def21d47d35edeb6fbcb7b4fe8795ec119e7e9facd9cf730ea8bb6788a5e049",
      "transactionIndex": "0x9",
      "blockHash": "0xbe6f2b1ba165dbe453f3f1ea31abb1ab2462ef752360ac27fda5513b367df592",
      "blockNumber": "0x1a6ac03",
      "gasUsed": "0x12ece",
      "effectiveGasPrice": "0x4a82cecb2",
      "from": "0x66ea213ab1cf728dabdde0604ce6286f3a457efc",
      "to": "0x9331b923f0b986ee5d173c06606188f3b7169159",
      "contractAddress": null
    },
    {
      "status": "0x1",
      "cumulativeGasUsed": "0xbc799",
      "logs": [
        {
          "address": "0x9331b923f0b986ee5d173c06606188f3b7169159",
          "topics": [
            "0x6935e0f18dbfc87e6c52b8dd15ef30f9053fd73121f464a32653f6f682d19c9a",
            "0x0000000000000000000000000000000000000000000000000000000000000001",
            "0x000000000000000000000000b9de38d8d4e343330bbf99fe472fededd088222a"
          ],
          "data": "0x00000000000000000000000000000000000000000000000000000000000000010000000000000000000000000000000000000000000000000000000000000001",
          "blockHash": "0xe4e0cc86f838ea0e30911a1d366f658cf0d4ad522934a928f25a8f80aee74caa",
          "blockNumber": "0x1a6ac07",
          "blockTimestamp": "0x6995dc9c",
          "transactionHash": "0x06859441a540aa7333179559e3d3d91ff1669d60b44acf1c313ed51955f2df47",
          "transactionIndex": "0x7",
          "logIndex": "0xf",
          "removed": false
        },
        {
          "address": "0x9331b923f0b986ee5d173c06606188f3b7169159",
          "topics": [
            "0x878536ebf930768ad5274a079ba36028b128aeca4b9212fece414176c39e30f7",
            "0x0000000000000000000000000000000000000000000000000000000000000001"
          ],
          "data": "0x",
          "blockHash": "0xe4e0cc86f838ea0e30911a1d366f658cf0d4ad522934a928f25a8f80aee74caa",
          "blockNumber": "0x1a6ac07",
          "blockTimestamp": "0x6995dc9c",
          "transactionHash": "0x06859441a540aa7333179559e3d3d91ff1669d60b44acf1c313ed51955f2df47",
          "transactionIndex": "0x7",
          "logIndex": "0x10",
          "removed": false
        }
      ],
      "logsBloom": "0x00000000000020000000000000000000000000000000000000000000000000000002000000000000000000000000000800000000004000000000000000040000000000800010000000000000000000000000000000040000000000000000000000000000000000000000000000000000800000000000000000000000000000000000000000000020000000000000000000000000000000000000000000000000000000000000000000000000000000000000000000000000000000000000000000000000000000000080000000000000000000000000000000000000000040020000000000000000000000000000000000000000040800000000000000000000",
      "type": "0x2",
      "transactionHash": "0x06859441a540aa7333179559e3d3d91ff1669d60b44acf1c313ed51955f2df47",
      "transactionIndex": "0x7",
      "blockHash": "0xe4e0cc86f838ea0e30911a1d366f658cf0d4ad522934a928f25a8f80aee74caa",
      "blockNumber": "0x1a6ac07",
      "gasUsed": "0x16d8b",
      "effectiveGasPrice": "0x4a82cecb2",
      "from": "0xb9de38d8d4e343330bbf99fe472fededd088222a",
      "to": "0x9331b923f0b986ee5d173c06606188f3b7169159",
      "contractAddress": null
    },
    {
      "status": "0x1",
      "cumulativeGasUsed": "0x146e86",
      "logs": [
        {
          "address": "0x1800000000000000000000000000000000000000",
          "topics": [
            "0x62f084c00a442dcf51cdbb51beed2839bf42a268da8474b0e98f38edb7db5a22",
            "0x0000000000000000000000009331b923f0b986ee5d173c06606188f3b7169159",
            "0x00000000000000000000000066ea213ab1cf728dabdde0604ce6286f3a457efc"
          ],
          "data": "0x00000000000000000000000000000000000000000000000045400a8fd5330000",
          "blockHash": "0xab256ed95ed808d623599f4bdfdc26901a46cf1e99f63f09b3b4be55246ee8f6",
          "blockNumber": "0x1a6ac0b",
          "blockTimestamp": "0x6995dc9e",
          "transactionHash": "0x73667acb9b187b8b344858852ca0202f868de888a5824a472b2d0e633092b2b6",
          "transactionIndex": "0x9",
          "logIndex": "0x2d",
          "removed": false
        },
        {
          "address": "0x1800000000000000000000000000000000000000",
          "topics": [
            "0x62f084c00a442dcf51cdbb51beed2839bf42a268da8474b0e98f38edb7db5a22",
            "0x0000000000000000000000009331b923f0b986ee5d173c06606188f3b7169159",
            "0x000000000000000000000000440cf543e261ab548048a81d91a0df78b6778db8"
          ],
          "data": "0x000000000000000000000000000000000000000000000000002386f26fc10000",
          "blockHash": "0xab256ed95ed808d623599f4bdfdc26901a46cf1e99f63f09b3b4be55246ee8f6",
          "blockNumber": "0x1a6ac0b",
          "blockTimestamp": "0x6995dc9e",
          "transactionHash": "0x73667acb9b187b8b344858852ca0202f868de888a5824a472b2d0e633092b2b6",
          "transactionIndex": "0x9",
          "logIndex": "0x2e",
          "removed": false
        },
        {
          "address": "0x9331b923f0b986ee5d173c06606188f3b7169159",
          "topics": [
            "0x0f88da84da2d168cdef1dd9b3be4270e1c791aadab80a0b68e07249bb7b04aa6",
            "0x0000000000000000000000000000000000000000000000000000000000000001"
          ],
          "data": "0x00000000000000000000000000000000000000000000000045400a8fd5330000000000000000000000000000000000000000000000000000002386f26fc10000",
          "blockHash": "0xab256ed95ed808d623599f4bdfdc26901a46cf1e99f63f09b3b4be55246ee8f6",
          "blockNumber": "0x1a6ac0b",
          "blockTimestamp": "0x6995dc9e",
          "transactionHash": "0x73667acb9b187b8b344858852ca0202f868de888a5824a472b2d0e633092b2b6",
          "transactionIndex": "0x9",
          "logIndex": "0x2f",
          "removed": false
        }
      ],
      "logsBloom": "0x00000000000000000000000000000000000000000000000000000000000000000002000001000000000000000080000000000000000000000000000000060000000000000000000000000000000000000000020001040004000002000000100000000000000000000000000000000000800002000000000000000000020000000040000008000000000000000000000000000000040000200000000000000000000000000000000000000000000002000000002000000000000000000000000000000000000000004000000000000000000000000000000000000000000040028000000000000000000000000000000000000000000000000000000000000000",
      "type": "0x2",
      "transactionHash": "0x73667acb9b187b8b344858852ca0202f868de888a5824a472b2d0e633092b2b6",
      "transactionIndex": "0x9",
      "blockHash": "0xab256ed95ed808d623599f4bdfdc26901a46cf1e99f63f09b3b4be55246ee8f6",
      "blockNumber": "0x1a6ac0b",
      "gasUsed": "0xe1da",
      "effectiveGasPrice": "0x4a82cecb2",
      "from": "0x440cf543e261ab548048a81d91a0df78b6778db8",
      "to": "0x9331b923f0b986ee5d173c06606188f3b7169159",
      "contractAddress": null
    }
  ],
  "libraries": [],
  "pending": [],
  "returns": {},
  "timestamp": 1771429023994,
  "chain": 5042002,
  "commit": null
}